{
  "contractName": "Dwitter",
  "abi": [
    {
      "inputs": [],
      "stateMutability": "nonpayable",
      "type": "constructor"
    },
    {
      "anonymous": false,
      "inputs": [
        {
          "indexed": false,
          "internalType": "string",
          "name": "msg",
          "type": "string"
        }
      ],
      "name": "Login",
      "type": "event"
    },
    {
      "inputs": [
        {
          "internalType": "string",
          "name": "_Name",
          "type": "string"
        },
        {
          "internalType": "uint256",
          "name": "_pin",
          "type": "uint256"
        }
      ],
      "name": "signUp",
      "outputs": [],
      "stateMutability": "nonpayable",
      "type": "function"
    },
    {
      "inputs": [
        {
          "internalType": "uint256",
          "name": "_pin",
          "type": "uint256"
        }
      ],
      "name": "signIn",
      "outputs": [],
      "stateMutability": "nonpayable",
      "type": "function"
    },
    {
      "inputs": [],
      "name": "viewUserProfile",
      "outputs": [
        {
          "internalType": "address",
          "name": "",
          "type": "address"
        },
        {
          "internalType": "string",
          "name": "",
          "type": "string"
        },
        {
          "internalType": "bool",
          "name": "",
          "type": "bool"
        },
        {
          "internalType": "uint256",
          "name": "",
          "type": "uint256"
        },
        {
          "internalType": "uint256",
          "name": "",
          "type": "uint256"
        }
      ],
      "stateMutability": "view",
      "type": "function",
      "constant": true
    },
    {
      "inputs": [
        {
          "internalType": "address",
          "name": "_search_user",
          "type": "address"
        }
      ],
      "name": "searchUserProfile",
      "outputs": [
        {
          "internalType": "address",
          "name": "",
          "type": "address"
        },
        {
          "internalType": "string",
          "name": "",
          "type": "string"
        },
        {
          "internalType": "bool",
          "name": "",
          "type": "bool"
        },
        {
          "internalType": "uint256",
          "name": "",
          "type": "uint256"
        },
        {
          "internalType": "uint256",
          "name": "",
          "type": "uint256"
        }
      ],
      "stateMutability": "view",
      "type": "function",
      "constant": true
    },
    {
      "inputs": [],
      "name": "changeAccountStatus",
      "outputs": [],
      "stateMutability": "nonpayable",
      "type": "function"
    },
    {
      "inputs": [],
      "name": "deleteMyAccount",
      "outputs": [],
      "stateMutability": "nonpayable",
      "type": "function"
    },
    {
      "inputs": [
        {
          "internalType": "address",
          "name": "_user_to_verfiy",
          "type": "address"
        }
      ],
      "name": "verifyAccount",
      "outputs": [],
      "stateMutability": "nonpayable",
      "type": "function"
    },
    {
      "inputs": [
        {
          "internalType": "string",
          "name": "_tweet",
          "type": "string"
        },
        {
          "internalType": "string",
          "name": "_hashTag",
          "type": "string"
        }
      ],
      "name": "tweet",
      "outputs": [],
      "stateMutability": "nonpayable",
      "type": "function"
    },
    {
      "inputs": [
        {
          "internalType": "address",
          "name": "_user_address",
          "type": "address"
        }
      ],
      "name": "showTweets",
      "outputs": [
        {
          "internalType": "string[]",
          "name": "",
          "type": "string[]"
        }
      ],
      "stateMutability": "view",
      "type": "function",
      "constant": true
    },
    {
      "inputs": [],
      "name": "showAccount",
      "outputs": [
        {
          "internalType": "address[]",
          "name": "",
          "type": "address[]"
        }
      ],
      "stateMutability": "view",
      "type": "function",
      "constant": true
    },
    {
      "inputs": [
        {
          "internalType": "address",
          "name": "_user_address",
          "type": "address"
        }
      ],
      "name": "follow",
      "outputs": [],
      "stateMutability": "nonpayable",
      "type": "function"
    },
    {
      "inputs": [
        {
          "internalType": "address",
          "name": "_user_address",
          "type": "address"
        },
        {
          "internalType": "uint256",
          "name": "tweet_UID",
          "type": "uint256"
        }
      ],
      "name": "likeTweets",
      "outputs": [],
      "stateMutability": "nonpayable",
      "type": "function"
    },
    {
      "inputs": [
        {
          "internalType": "address",
          "name": "_user_address",
          "type": "address"
        },
        {
          "internalType": "uint256",
          "name": "tweet_UID",
          "type": "uint256"
        }
      ],
      "name": "reTweets",
      "outputs": [],
      "stateMutability": "nonpayable",
      "type": "function"
    },
    {
      "inputs": [
        {
          "internalType": "address",
          "name": "_user_address",
          "type": "address"
        }
      ],
      "name": "showReTweets",
      "outputs": [
        {
          "internalType": "string[]",
          "name": "",
          "type": "string[]"
        }
      ],
      "stateMutability": "view",
      "type": "function",
      "constant": true
    },
    {
      "inputs": [
        {
          "internalType": "address",
          "name": "_user_address",
          "type": "address"
        }
      ],
      "name": "showLikes",
      "outputs": [
        {
          "internalType": "string[]",
          "name": "",
          "type": "string[]"
        }
      ],
      "stateMutability": "view",
      "type": "function",
      "constant": true
    }
  ],
  "bytecode": "0x608060405234801561001057600080fd5b50336000806101000a81548173ffffffffffffffffffffffffffffffffffffffff021916908373ffffffffffffffffffffffffffffffffffffffff16021790555061344b806100606000396000f3fe608060405234801561001057600080fd5b50600436106100f55760003560e01c8063562cf19511610097578063a657bbcc11610066578063a657bbcc1461024c578063d880d14f1461026a578063e78b90331461029e578063f16dfbe9146102ba576100f5565b8063562cf195146101da57806367897750146101f657806369075afe1461022657806392e04adf14610242576100f5565b8063381ccac7116100d3578063381ccac7146101545780633f07ce26146101845780634dbf27cc146101b457806352fe3731146101d0576100f5565b80632d60b2ee146100fa5780632f403b4f1461011c5780632fc091a414610138575b600080fd5b6101026102d6565b604051610113959493929190612c98565b60405180910390f35b6101366004803603810190610131919061283b565b610623565b005b610152600480360381019061014d91906127ff565b61087a565b005b61016e600480360381019061016991906127d6565b610a71565b60405161017b9190612d14565b60405180910390f35b61019e600480360381019061019991906127d6565b610cb5565b6040516101ab9190612d14565b60405180910390f35b6101ce60048036038101906101c991906127d6565b610ef9565b005b6101d86111dc565b005b6101f460048036038101906101ef91906127ff565b611353565b005b610210600480360381019061020b91906127d6565b61161a565b60405161021d9190612d14565b60405180910390f35b610240600480360381019061023b91906128a7565b61185e565b005b61024a611bd4565b005b610254611e52565b6040516102619190612cf2565b60405180910390f35b610284600480360381019061027f91906127d6565b61200c565b604051610295959493929190612c98565b60405180910390f35b6102b860048036038101906102b391906128fb565b61235b565b005b6102d460048036038101906102cf91906127d6565b612541565b005b60006060600080600060011515600160003373ffffffffffffffffffffffffffffffffffffffff1673ffffffffffffffffffffffffffffffffffffffff16815260200190815260200160002060070160009054906101000a900460ff16151514610375576040517f08c379a000000000000000000000000000000000000000000000000000000000815260040161036c90612d36565b60405180910390fd5b60011515600160003373ffffffffffffffffffffffffffffffffffffffff1673ffffffffffffffffffffffffffffffffffffffff16815260200190815260200160002060070160029054906101000a900460ff1615151461040b576040517f08c379a000000000000000000000000000000000000000000000000000000000815260040161040290612dd6565b60405180910390fd5b600160003373ffffffffffffffffffffffffffffffffffffffff1673ffffffffffffffffffffffffffffffffffffffff16815260200190815260200160002060000160009054906101000a900473ffffffffffffffffffffffffffffffffffffffff16600160003373ffffffffffffffffffffffffffffffffffffffff1673ffffffffffffffffffffffffffffffffffffffff168152602001908152602001600020600101600160003373ffffffffffffffffffffffffffffffffffffffff1673ffffffffffffffffffffffffffffffffffffffff16815260200190815260200160002060070160019054906101000a900460ff16600160003373ffffffffffffffffffffffffffffffffffffffff1673ffffffffffffffffffffffffffffffffffffffff16815260200190815260200160002060040154600160003373ffffffffffffffffffffffffffffffffffffffff1673ffffffffffffffffffffffffffffffffffffffff16815260200190815260200160002060050154838054610592906130ab565b80601f01602080910402602001604051908101604052809291908181526020018280546105be906130ab565b801561060b5780601f106105e05761010080835404028352916020019161060b565b820191906000526020600020905b8154815290600101906020018083116105ee57829003601f168201915b50505050509350945094509450945094509091929394565b60011515600160003373ffffffffffffffffffffffffffffffffffffffff1673ffffffffffffffffffffffffffffffffffffffff16815260200190815260200160002060070160009054906101000a900460ff161515146106b9576040517f08c379a00000000000000000000000000000000000000000000000000000000081526004016106b090612d36565b60405180910390fd5b60011515600160003373ffffffffffffffffffffffffffffffffffffffff1673ffffffffffffffffffffffffffffffffffffffff16815260200190815260200160002060070160029054906101000a900460ff1615151461074f576040517f08c379a000000000000000000000000000000000000000000000000000000000815260040161074690612dd6565b60405180910390fd5b600360003373ffffffffffffffffffffffffffffffffffffffff1673ffffffffffffffffffffffffffffffffffffffff168152602001908152602001600020829080600181540180825580915050600190039060005260206000200160009091909190915090805190602001906107c7929190612661565b50600460003373ffffffffffffffffffffffffffffffffffffffff1673ffffffffffffffffffffffffffffffffffffffff16815260200190815260200160002081908060018154018082558091505060019003906000526020600020016000909190919091509080519060200190610840929190612661565b507f0b2d8924cbfc76a6ce4dcbb029636b55c02fdbd3cc5d8927d40119f538d552b060405161086e90612e36565b60405180910390a15050565b60011515600160003373ffffffffffffffffffffffffffffffffffffffff1673ffffffffffffffffffffffffffffffffffffffff16815260200190815260200160002060070160009054906101000a900460ff16151514610910576040517f08c379a000000000000000000000000000000000000000000000000000000000815260040161090790612d36565b60405180910390fd5b60011515600160003373ffffffffffffffffffffffffffffffffffffffff1673ffffffffffffffffffffffffffffffffffffffff16815260200190815260200160002060070160029054906101000a900460ff161515146109a6576040517f08c379a000000000000000000000000000000000000000000000000000000000815260040161099d90612dd6565b60405180910390fd5b60606109b18361161a565b9050600560003373ffffffffffffffffffffffffffffffffffffffff1673ffffffffffffffffffffffffffffffffffffffff168152602001908152602001600020818381518110610a2b577f4e487b7100000000000000000000000000000000000000000000000000000000600052603260045260246000fd5b6020026020010151908060018154018082558091505060019003906000526020600020016000909190919091509080519060200190610a6b929190612661565b50505050565b606060011515600160003373ffffffffffffffffffffffffffffffffffffffff1673ffffffffffffffffffffffffffffffffffffffff16815260200190815260200160002060070160009054906101000a900460ff16151514610b09576040517f08c379a0000000000000000000000000000000000000000000000000000000008152600401610b0090612d36565b60405180910390fd5b60011515600160003373ffffffffffffffffffffffffffffffffffffffff1673ffffffffffffffffffffffffffffffffffffffff16815260200190815260200160002060070160029054906101000a900460ff16151514610b9f576040517f08c379a0000000000000000000000000000000000000000000000000000000008152600401610b9690612dd6565b60405180910390fd5b600560008373ffffffffffffffffffffffffffffffffffffffff1673ffffffffffffffffffffffffffffffffffffffff168152602001908152602001600020805480602002602001604051908101604052809291908181526020016000905b82821015610caa578382906000526020600020018054610c1d906130ab565b80601f0160208091040260200160405190810160405280929190818152602001828054610c49906130ab565b8015610c965780601f10610c6b57610100808354040283529160200191610c96565b820191906000526020600020905b815481529060010190602001808311610c7957829003601f168201915b505050505081526020019060010190610bfe565b505050509050919050565b606060011515600160003373ffffffffffffffffffffffffffffffffffffffff1673ffffffffffffffffffffffffffffffffffffffff16815260200190815260200160002060070160009054906101000a900460ff16151514610d4d576040517f08c379a0000000000000000000000000000000000000000000000000000000008152600401610d4490612d36565b60405180910390fd5b60011515600160003373ffffffffffffffffffffffffffffffffffffffff1673ffffffffffffffffffffffffffffffffffffffff16815260200190815260200160002060070160029054906101000a900460ff16151514610de3576040517f08c379a0000000000000000000000000000000000000000000000000000000008152600401610dda90612dd6565b60405180910390fd5b600660008373ffffffffffffffffffffffffffffffffffffffff1673ffffffffffffffffffffffffffffffffffffffff168152602001908152602001600020805480602002602001604051908101604052809291908181526020016000905b82821015610eee578382906000526020600020018054610e61906130ab565b80601f0160208091040260200160405190810160405280929190818152602001828054610e8d906130ab565b8015610eda5780601f10610eaf57610100808354040283529160200191610eda565b820191906000526020600020905b815481529060010190602001808311610ebd57829003601f168201915b505050505081526020019060010190610e42565b505050509050919050565b60011515600160003373ffffffffffffffffffffffffffffffffffffffff1673ffffffffffffffffffffffffffffffffffffffff16815260200190815260200160002060070160009054906101000a900460ff16151514610f8f576040517f08c379a0000000000000000000000000000000000000000000000000000000008152600401610f8690612d36565b60405180910390fd5b60011515600160003373ffffffffffffffffffffffffffffffffffffffff1673ffffffffffffffffffffffffffffffffffffffff16815260200190815260200160002060070160029054906101000a900460ff16151514611025576040517f08c379a000000000000000000000000000000000000000000000000000000000815260040161101c90612dd6565b60405180910390fd5b60018060008373ffffffffffffffffffffffffffffffffffffffff1673ffffffffffffffffffffffffffffffffffffffff16815260200190815260200160002060040160008282546110779190612fcb565b9250508190555060018060003373ffffffffffffffffffffffffffffffffffffffff1673ffffffffffffffffffffffffffffffffffffffff16815260200190815260200160002060050160008282546110d09190612fcb565b9250508190555033600160008373ffffffffffffffffffffffffffffffffffffffff1673ffffffffffffffffffffffffffffffffffffffff16815260200190815260200160002060020160006101000a81548173ffffffffffffffffffffffffffffffffffffffff021916908373ffffffffffffffffffffffffffffffffffffffff16021790555080600160003373ffffffffffffffffffffffffffffffffffffffff1673ffffffffffffffffffffffffffffffffffffffff16815260200190815260200160002060030160006101000a81548173ffffffffffffffffffffffffffffffffffffffff021916908373ffffffffffffffffffffffffffffffffffffffff16021790555050565b60011515600160003373ffffffffffffffffffffffffffffffffffffffff1673ffffffffffffffffffffffffffffffffffffffff16815260200190815260200160002060070160009054906101000a900460ff16151514611272576040517f08c379a000000000000000000000000000000000000000000000000000000000815260040161126990612d36565b60405180910390fd5b600160003373ffffffffffffffffffffffffffffffffffffffff1673ffffffffffffffffffffffffffffffffffffffff16815260200190815260200160002060070160029054906101000a900460ff1615600160003373ffffffffffffffffffffffffffffffffffffffff1673ffffffffffffffffffffffffffffffffffffffff16815260200190815260200160002060070160026101000a81548160ff0219169083151502179055507f0b2d8924cbfc76a6ce4dcbb029636b55c02fdbd3cc5d8927d40119f538d552b060405161134990612db6565b60405180910390a1565b60011515600160003373ffffffffffffffffffffffffffffffffffffffff1673ffffffffffffffffffffffffffffffffffffffff16815260200190815260200160002060070160009054906101000a900460ff161515146113e9576040517f08c379a00000000000000000000000000000000000000000000000000000000081526004016113e090612d36565b60405180910390fd5b60011515600160003373ffffffffffffffffffffffffffffffffffffffff1673ffffffffffffffffffffffffffffffffffffffff16815260200190815260200160002060070160029054906101000a900460ff1615151461147f576040517f08c379a000000000000000000000000000000000000000000000000000000000815260040161147690612dd6565b60405180910390fd5b3373ffffffffffffffffffffffffffffffffffffffff16600160003373ffffffffffffffffffffffffffffffffffffffff1673ffffffffffffffffffffffffffffffffffffffff16815260200190815260200160002060000160009054906101000a900473ffffffffffffffffffffffffffffffffffffffff1673ffffffffffffffffffffffffffffffffffffffff161461154f576040517f08c379a000000000000000000000000000000000000000000000000000000000815260040161154690612d76565b60405180910390fd5b606061155a8361161a565b9050600660003373ffffffffffffffffffffffffffffffffffffffff1673ffffffffffffffffffffffffffffffffffffffff1681526020019081526020016000208183815181106115d4577f4e487b7100000000000000000000000000000000000000000000000000000000600052603260045260246000fd5b6020026020010151908060018154018082558091505060019003906000526020600020016000909190919091509080519060200190611614929190612661565b50505050565b606060011515600160003373ffffffffffffffffffffffffffffffffffffffff1673ffffffffffffffffffffffffffffffffffffffff16815260200190815260200160002060070160009054906101000a900460ff161515146116b2576040517f08c379a00000000000000000000000000000000000000000000000000000000081526004016116a990612d36565b60405180910390fd5b60011515600160003373ffffffffffffffffffffffffffffffffffffffff1673ffffffffffffffffffffffffffffffffffffffff16815260200190815260200160002060070160029054906101000a900460ff16151514611748576040517f08c379a000000000000000000000000000000000000000000000000000000000815260040161173f90612dd6565b60405180910390fd5b600360008373ffffffffffffffffffffffffffffffffffffffff1673ffffffffffffffffffffffffffffffffffffffff168152602001908152602001600020805480602002602001604051908101604052809291908181526020016000905b828210156118535783829060005260206000200180546117c6906130ab565b80601f01602080910402602001604051908101604052809291908181526020018280546117f2906130ab565b801561183f5780601f106118145761010080835404028352916020019161183f565b820191906000526020600020905b81548152906001019060200180831161182257829003601f168201915b5050505050815260200190600101906117a7565b505050509050919050565b3373ffffffffffffffffffffffffffffffffffffffff16600160003373ffffffffffffffffffffffffffffffffffffffff1673ffffffffffffffffffffffffffffffffffffffff16815260200190815260200160002060000160009054906101000a900473ffffffffffffffffffffffffffffffffffffffff1673ffffffffffffffffffffffffffffffffffffffff16141561192f576040517f08c379a000000000000000000000000000000000000000000000000000000000815260040161192690612e16565b60405180910390fd5b33600160003373ffffffffffffffffffffffffffffffffffffffff1673ffffffffffffffffffffffffffffffffffffffff16815260200190815260200160002060000160006101000a81548173ffffffffffffffffffffffffffffffffffffffff021916908373ffffffffffffffffffffffffffffffffffffffff16021790555081600160003373ffffffffffffffffffffffffffffffffffffffff1673ffffffffffffffffffffffffffffffffffffffff1681526020019081526020016000206001019080519060200190611a06929190612661565b5080600160003373ffffffffffffffffffffffffffffffffffffffff1673ffffffffffffffffffffffffffffffffffffffff1681526020019081526020016000206006018190555060018060003373ffffffffffffffffffffffffffffffffffffffff1673ffffffffffffffffffffffffffffffffffffffff16815260200190815260200160002060070160026101000a81548160ff0219169083151502179055506000600160003373ffffffffffffffffffffffffffffffffffffffff1673ffffffffffffffffffffffffffffffffffffffff168152602001908152602001600020600501819055506000600160003373ffffffffffffffffffffffffffffffffffffffff1673ffffffffffffffffffffffffffffffffffffffff168152602001908152602001600020600401819055507f0b2d8924cbfc76a6ce4dcbb029636b55c02fdbd3cc5d8927d40119f538d552b0604051611b6590612e96565b60405180910390a16002339080600181540180825580915050600190039060005260206000200160009091909190916101000a81548173ffffffffffffffffffffffffffffffffffffffff021916908373ffffffffffffffffffffffffffffffffffffffff1602179055505050565b60011515600160003373ffffffffffffffffffffffffffffffffffffffff1673ffffffffffffffffffffffffffffffffffffffff16815260200190815260200160002060070160009054906101000a900460ff16151514611c6a576040517f08c379a0000000000000000000000000000000000000000000000000000000008152600401611c6190612d36565b60405180910390fd5b60011515600160003373ffffffffffffffffffffffffffffffffffffffff1673ffffffffffffffffffffffffffffffffffffffff16815260200190815260200160002060070160029054906101000a900460ff16151514611d00576040517f08c379a0000000000000000000000000000000000000000000000000000000008152600401611cf790612dd6565b60405180910390fd5b600160003373ffffffffffffffffffffffffffffffffffffffff1673ffffffffffffffffffffffffffffffffffffffff168152602001908152602001600020600080820160006101000a81549073ffffffffffffffffffffffffffffffffffffffff0219169055600182016000611d7791906126e7565b6002820160006101000a81549073ffffffffffffffffffffffffffffffffffffffff02191690556003820160006101000a81549073ffffffffffffffffffffffffffffffffffffffff02191690556004820160009055600582016000905560068201600090556007820160006101000a81549060ff02191690556007820160016101000a81549060ff02191690556007820160026101000a81549060ff021916905550507f0b2d8924cbfc76a6ce4dcbb029636b55c02fdbd3cc5d8927d40119f538d552b0604051611e4890612d56565b60405180910390a1565b606060011515600160003373ffffffffffffffffffffffffffffffffffffffff1673ffffffffffffffffffffffffffffffffffffffff16815260200190815260200160002060070160009054906101000a900460ff16151514611eea576040517f08c379a0000000000000000000000000000000000000000000000000000000008152600401611ee190612d36565b60405180910390fd5b60011515600160003373ffffffffffffffffffffffffffffffffffffffff1673ffffffffffffffffffffffffffffffffffffffff16815260200190815260200160002060070160029054906101000a900460ff16151514611f80576040517f08c379a0000000000000000000000000000000000000000000000000000000008152600401611f7790612dd6565b60405180910390fd5b600280548060200260200160405190810160405280929190818152602001828054801561200257602002820191906000526020600020905b8160009054906101000a900473ffffffffffffffffffffffffffffffffffffffff1673ffffffffffffffffffffffffffffffffffffffff1681526020019060010190808311611fb8575b5050505050905090565b60006060600080600060011515600160003373ffffffffffffffffffffffffffffffffffffffff1673ffffffffffffffffffffffffffffffffffffffff16815260200190815260200160002060070160009054906101000a900460ff161515146120ab576040517f08c379a00000000000000000000000000000000000000000000000000000000081526004016120a290612d36565b60405180910390fd5b60011515600160003373ffffffffffffffffffffffffffffffffffffffff1673ffffffffffffffffffffffffffffffffffffffff16815260200190815260200160002060070160029054906101000a900460ff16151514612141576040517f08c379a000000000000000000000000000000000000000000000000000000000815260040161213890612dd6565b60405180910390fd5b600160008773ffffffffffffffffffffffffffffffffffffffff1673ffffffffffffffffffffffffffffffffffffffff16815260200190815260200160002060000160009054906101000a900473ffffffffffffffffffffffffffffffffffffffff16600160008873ffffffffffffffffffffffffffffffffffffffff1673ffffffffffffffffffffffffffffffffffffffff168152602001908152602001600020600101600160008973ffffffffffffffffffffffffffffffffffffffff1673ffffffffffffffffffffffffffffffffffffffff16815260200190815260200160002060070160019054906101000a900460ff16600160008a73ffffffffffffffffffffffffffffffffffffffff1673ffffffffffffffffffffffffffffffffffffffff16815260200190815260200160002060040154600160008b73ffffffffffffffffffffffffffffffffffffffff1673ffffffffffffffffffffffffffffffffffffffff168152602001908152602001600020600501548380546122c8906130ab565b80601f01602080910402602001604051908101604052809291908181526020018280546122f4906130ab565b80156123415780601f1061231657610100808354040283529160200191612341565b820191906000526020600020905b81548152906001019060200180831161232457829003601f168201915b505050505093509450945094509450945091939590929450565b3373ffffffffffffffffffffffffffffffffffffffff16600160003373ffffffffffffffffffffffffffffffffffffffff1673ffffffffffffffffffffffffffffffffffffffff16815260200190815260200160002060000160009054906101000a900473ffffffffffffffffffffffffffffffffffffffff1673ffffffffffffffffffffffffffffffffffffffff161461242b576040517f08c379a000000000000000000000000000000000000000000000000000000000815260040161242290612df6565b60405180910390fd5b80600160003373ffffffffffffffffffffffffffffffffffffffff1673ffffffffffffffffffffffffffffffffffffffff16815260200190815260200160002060060154146124af576040517f08c379a00000000000000000000000000000000000000000000000000000000081526004016124a690612eb6565b60405180910390fd5b60018060003373ffffffffffffffffffffffffffffffffffffffff1673ffffffffffffffffffffffffffffffffffffffff16815260200190815260200160002060070160006101000a81548160ff0219169083151502179055507f0b2d8924cbfc76a6ce4dcbb029636b55c02fdbd3cc5d8927d40119f538d552b060405161253690612e56565b60405180910390a150565b3373ffffffffffffffffffffffffffffffffffffffff1660008054906101000a900473ffffffffffffffffffffffffffffffffffffffff1673ffffffffffffffffffffffffffffffffffffffff16146125cf576040517f08c379a00000000000000000000000000000000000000000000000000000000081526004016125c690612d96565b60405180910390fd5b60018060008373ffffffffffffffffffffffffffffffffffffffff1673ffffffffffffffffffffffffffffffffffffffff16815260200190815260200160002060070160016101000a81548160ff0219169083151502179055507f0b2d8924cbfc76a6ce4dcbb029636b55c02fdbd3cc5d8927d40119f538d552b060405161265690612e76565b60405180910390a150565b82805461266d906130ab565b90600052602060002090601f01602090048101928261268f57600085556126d6565b82601f106126a857805160ff19168380011785556126d6565b828001600101855582156126d6579182015b828111156126d55782518255916020019190600101906126ba565b5b5090506126e39190612727565b5090565b5080546126f3906130ab565b6000825580601f106127055750612724565b601f0160209004906000526020600020908101906127239190612727565b5b50565b5b80821115612740576000816000905550600101612728565b5090565b600061275761275284612efb565b612ed6565b90508281526020810184848401111561276f57600080fd5b61277a848285613069565b509392505050565b600081359050612791816133e7565b92915050565b600082601f8301126127a857600080fd5b81356127b8848260208601612744565b91505092915050565b6000813590506127d0816133fe565b92915050565b6000602082840312156127e857600080fd5b60006127f684828501612782565b91505092915050565b6000806040838503121561281257600080fd5b600061282085828601612782565b9250506020612831858286016127c1565b9150509250929050565b6000806040838503121561284e57600080fd5b600083013567ffffffffffffffff81111561286857600080fd5b61287485828601612797565b925050602083013567ffffffffffffffff81111561289157600080fd5b61289d85828601612797565b9150509250929050565b600080604083850312156128ba57600080fd5b600083013567ffffffffffffffff8111156128d457600080fd5b6128e085828601612797565b92505060206128f1858286016127c1565b9150509250929050565b60006020828403121561290d57600080fd5b600061291b848285016127c1565b91505092915050565b60006129308383612950565b60208301905092915050565b60006129488383612a50565b905092915050565b61295981613021565b82525050565b61296881613021565b82525050565b600061297982612f4c565b6129838185612f87565b935061298e83612f2c565b8060005b838110156129bf5781516129a68882612924565b97506129b183612f6d565b925050600181019050612992565b5085935050505092915050565b60006129d782612f57565b6129e18185612f98565b9350836020820285016129f385612f3c565b8060005b85811015612a2f5784840389528151612a10858261293c565b9450612a1b83612f7a565b925060208a019950506001810190506129f7565b50829750879550505050505092915050565b612a4a81613033565b82525050565b6000612a5b82612f62565b612a658185612fa9565b9350612a75818560208601613078565b612a7e8161319b565b840191505092915050565b6000612a9482612f62565b612a9e8185612fba565b9350612aae818560208601613078565b612ab78161319b565b840191505092915050565b6000612acf601983612fba565b9150612ada826131ac565b602082019050919050565b6000612af2600f83612fba565b9150612afd826131d5565b602082019050919050565b6000612b15601983612fba565b9150612b20826131fe565b602082019050919050565b6000612b38600d83612fba565b9150612b4382613227565b602082019050919050565b6000612b5b601683612fba565b9150612b6682613250565b602082019050919050565b6000612b7e602483612fba565b9150612b8982613279565b604082019050919050565b6000612ba1601383612fba565b9150612bac826132c8565b602082019050919050565b6000612bc4601783612fba565b9150612bcf826132f1565b602082019050919050565b6000612be7601083612fba565b9150612bf28261331a565b602082019050919050565b6000612c0a601083612fba565b9150612c1582613343565b602082019050919050565b6000612c2d601083612fba565b9150612c388261336c565b602082019050919050565b6000612c50601c83612fba565b9150612c5b82613395565b602082019050919050565b6000612c73600b83612fba565b9150612c7e826133be565b602082019050919050565b612c928161305f565b82525050565b600060a082019050612cad600083018861295f565b8181036020830152612cbf8187612a89565b9050612cce6040830186612a41565b612cdb6060830185612c89565b612ce86080830184612c89565b9695505050505050565b60006020820190508181036000830152612d0c818461296e565b905092915050565b60006020820190508181036000830152612d2e81846129cc565b905092915050565b60006020820190508181036000830152612d4f81612ac2565b9050919050565b60006020820190508181036000830152612d6f81612ae5565b9050919050565b60006020820190508181036000830152612d8f81612b08565b9050919050565b60006020820190508181036000830152612daf81612b2b565b9050919050565b60006020820190508181036000830152612dcf81612b4e565b9050919050565b60006020820190508181036000830152612def81612b71565b9050919050565b60006020820190508181036000830152612e0f81612b94565b9050919050565b60006020820190508181036000830152612e2f81612bb7565b9050919050565b60006020820190508181036000830152612e4f81612bda565b9050919050565b60006020820190508181036000830152612e6f81612bfd565b9050919050565b60006020820190508181036000830152612e8f81612c20565b9050919050565b60006020820190508181036000830152612eaf81612c43565b9050919050565b60006020820190508181036000830152612ecf81612c66565b9050919050565b6000612ee0612ef1565b9050612eec82826130dd565b919050565b6000604051905090565b600067ffffffffffffffff821115612f1657612f1561316c565b5b612f1f8261319b565b9050602081019050919050565b6000819050602082019050919050565b6000819050602082019050919050565b600081519050919050565b600081519050919050565b600081519050919050565b6000602082019050919050565b6000602082019050919050565b600082825260208201905092915050565b600082825260208201905092915050565b600082825260208201905092915050565b600082825260208201905092915050565b6000612fd68261305f565b9150612fe18361305f565b9250827fffffffffffffffffffffffffffffffffffffffffffffffffffffffffffffffff038211156130165761301561310e565b5b828201905092915050565b600061302c8261303f565b9050919050565b60008115159050919050565b600073ffffffffffffffffffffffffffffffffffffffff82169050919050565b6000819050919050565b82818337600083830152505050565b60005b8381101561309657808201518184015260208101905061307b565b838111156130a5576000848401525b50505050565b600060028204905060018216806130c357607f821691505b602082108114156130d7576130d661313d565b5b50919050565b6130e68261319b565b810181811067ffffffffffffffff821117156131055761310461316c565b5b80604052505050565b7f4e487b7100000000000000000000000000000000000000000000000000000000600052601160045260246000fd5b7f4e487b7100000000000000000000000000000000000000000000000000000000600052602260045260246000fd5b7f4e487b7100000000000000000000000000000000000000000000000000000000600052604160045260246000fd5b6000601f19601f8301169050919050565b7f506c65617365204c6f67696e20796f7572206163636f756e7400000000000000600082015250565b7f4163636f756e742044656c657465640000000000000000000000000000000000600082015250565b7f4f776e65722043616e6e6f74204d6f6469666979204461746100000000000000600082015250565b7f4163636573732044656e69656400000000000000000000000000000000000000600082015250565b7f4163636f756e7420537461747573204368616e67656400000000000000000000600082015250565b7f4163636f756e742044656163746976617465642e2e4163636573732044656e6960008201527f6564212100000000000000000000000000000000000000000000000000000000602082015250565b7f55736572204e6f74205265676973746572656400000000000000000000000000600082015250565b7f5573657220416c72656164792052656769737465726564000000000000000000600082015250565b7f5477656574205375636365737366756c00000000000000000000000000000000600082015250565b7f4c6f67696e205375636365737366756c00000000000000000000000000000000600082015250565b7f4163636f756e7420566572696669656400000000000000000000000000000000600082015250565b7f557365722052656769737465726564205375636365737366756c6c7900000000600082015250565b7f496e76616c69642050494e000000000000000000000000000000000000000000600082015250565b6133f081613021565b81146133fb57600080fd5b50565b6134078161305f565b811461341257600080fd5b5056fea2646970667358221220ae9f78739b232687a591bc656a9f515d8d68122b10b462bade99230009558c3564736f6c63430008010033",
  "immutableReferences": {},
  "source": "pragma solidity ^0.8.0;\n\ncontract Dwitter{\n    \n    address owner;\n    \n    struct Users{\n        address User_ID;\n        string Name;\n        address followers;\n        address following;\n        uint count_follower;\n        uint count_following;\n        uint pin;\n        bool log;\n        bool verified;\n        bool account_status;\n    }\n    \n  \n    mapping(address=>Users) user; \n    \n    address[] account;\n\n    event Login(string msg);\n    \n    modifier onlyOwner(){\n        require (owner == msg.sender, \"Access Denied\");\n        _;\n    }\n    \n    modifier checkLogin(){\n        require (user[msg.sender].log==true, \"Please Login your account\");\n        require(user[msg.sender].account_status == true,\"Account Deactivated..Access Denied!!\");\n        _;\n    }\n    \n    modifier stopOwner{\n        require (user[msg.sender].User_ID==msg.sender, \"Owner Cannot Modifiy Data\");\n        _;\n    }\n    \n    \n    \n    constructor(){\n        owner = msg.sender;\n    }\n\n//--------------------------------User Data Management--------------------------------    \n\n    function signUp(string memory _Name, uint _pin)public{\n        require(user[msg.sender].User_ID != msg.sender,\"User Already Registered\");\n        user[msg.sender].User_ID=msg.sender;\n        user[msg.sender].Name=_Name;\n        user[msg.sender].pin=_pin;\n        user[msg.sender].account_status=true;\n        user[msg.sender].count_following=0;\n        user[msg.sender].count_follower=0;\n        emit Login(\"User Registered Successfully\");\n        account.push(msg.sender);\n        \n    }\n    \n    function signIn(uint _pin)public{\n        require(user[msg.sender].User_ID == msg.sender,\"User Not Registered\");\n        require(user[msg.sender].pin == _pin,\"Invalid PIN\" );\n        user[msg.sender].log=true;\n        emit Login(\"Login Successful\");\n    }\n    \n    function viewUserProfile() public checkLogin view returns(address,string memory,bool,uint,uint){\n        return(user[msg.sender].User_ID,user[msg.sender].Name,user[msg.sender].verified,user[msg.sender].count_follower,user[msg.sender].count_following);\n    }\n    \n    function searchUserProfile(address _search_user) public checkLogin view returns(address,string memory,bool,uint,uint){\n        return(user[_search_user].User_ID,user[_search_user].Name,user[_search_user].verified,user[_search_user].count_follower, user[_search_user].count_following);\n    }\n    \n    function changeAccountStatus()public {\n        require (user[msg.sender].log==true, \"Please Login your account\");\n        user[msg.sender].account_status = !user[msg.sender].account_status;\n        emit Login(\"Account Status Changed\");\n    }\n    \n    \n    \n    function deleteMyAccount() public checkLogin{\n        delete user[msg.sender];\n        emit Login(\"Account Deleted\");\n    }\n    \n    function verifyAccount(address _user_to_verfiy) public onlyOwner{\n        user[_user_to_verfiy].verified = true;\n        emit Login(\"Account Verified\");\n    }\n    \n//--------------------------------User Data Management--------------------------------    \n    \n    mapping(address=>string[])tweets;\n    mapping(address=>string[])hashTag;\n    \n    mapping(address=>string[])like;\n    mapping(address=>string[])retweet;\n    mapping(address=>string[])report;\n    \n    function tweet(string memory _tweet,string memory _hashTag)public checkLogin{\n        tweets[msg.sender].push(_tweet);\n        hashTag[msg.sender].push(_hashTag);\n        emit Login(\"Tweet Successful\");\n    }\n    \n // used to get address of the users twitted\n    function showTweets(address _user_address)public checkLogin view returns(string[] memory) {\n        return tweets[_user_address];\n    }\n    \n    function showAccount()public checkLogin view returns(address[] memory) {\n        return account;\n    }\n    \n    function follow(address _user_address)public checkLogin{\n        user[_user_address].count_follower+=1;\n        user[msg.sender].count_following+=1;\n        \n        user[_user_address].followers = msg.sender;\n        user[msg.sender].following = _user_address;\n    }\n       \n    function likeTweets(address _user_address,uint tweet_UID)public checkLogin{\n        string[] memory showingTweets;\n        showingTweets = showTweets(_user_address);\n        like[msg.sender].push(showingTweets[tweet_UID]);\n    }\n    \n    function reTweets(address _user_address,uint tweet_UID)public checkLogin stopOwner{\n        string[] memory showingReTweets;\n        showingReTweets = showTweets(_user_address);\n        retweet[msg.sender].push(showingReTweets[tweet_UID]);\n    }\n    \n    function showReTweets(address _user_address)public checkLogin view returns(string[] memory){\n        return retweet[_user_address];\n    }\n    \n    function showLikes(address _user_address)public checkLogin view returns(string[] memory){\n        return like[_user_address];\n    }\n}",
  "sourcePath": "C:/Users/Venkatesh Mane/Desktop/Dwitter-master/contracts/dwitter.sol",
  "compiler": {
    "name": "solc",
    "version": "0.8.1+commit.df193b15.Emscripten.clang"
  },
  "schemaVersion": "3.3.4",
  "updatedAt": "2021-03-08T04:39:04.208Z",
  "networkType": "ethereum",
  "devdoc": {
    "kind": "dev",
    "methods": {},
    "version": 1
  },
  "userdoc": {
    "kind": "user",
    "methods": {},
    "version": 1
  }
}